:020000040800F2
:10000000D0270020490200085102000853020008CE
:1000100055020008570200085902000800000000BD
:10002000000000000000000000000000890100083E
:100030005D02000800000000E5010008F50E000860
:1000400063020008630200086302000863020008FC
:1000500063020008630200086302000863020008EC
:1000600063020008630200086302000863020008DC
:1000700063020008630200086302000863020008CC
:1000800063020008630200086302000863020008BC
:1000900063020008630200086302000863020008AC
:1000A000630200086302000863020008630200089C
:1000B000630200086302000863020008630200088C
:1000C000630200086302000863020008630200087C
:1000D000630200086302000863020008630200086C
:1000E000630200086302000863020008630200085C
:1000F00063020008630200086302000800000000B9
:100100000000000063020008630200080000000015
:100110006302000863020008000000000000000005
:10012000630200086302000863020008630200081B
:1001300000000000000000000000000000000000BF
:1001400000000000000000000000000000000000AF
:1001500063020008630200086302000863020008EB
:1001600063020008630200086302000863020008DB
:10017000DFF810D000F00AFC00480047E51F000837
:10018000AFF30080D02700202C4B19680868B0E836
:10019000F04F80F30988BFF36F8F4FF0000080F3BA
:1001A000118870470000000008480068006880F36C
:1001B00008884FF0000080F3148862B661B6BFF380
:1001C0004F8FBFF36F8F00DF00BF00BF08ED00E06F
:1001D000DFF80C00016841F470010160704700BF56
:1001E00088ED00E0EFF30980BFF36F8F134B1A68BF
:1001F0001EF0100F08BF20ED108A20E9F04F1060AC
:1002000009B44FF0100080F31188BFF34F8FBFF394
:100210006F8F03F099F94FF0000080F3118809BC4B
:1002200019680868B0E8F04F1EF0100F08BFB0EC76
:10023000108A80F30988BFF36F8F70478400002015
:10024000EFF30580704700000648804706480047E6
:10025000FEE7FEE7FEE7FEE7FEE7FEE7FEE7FEE776
:10026000FEE7FEE7290F0008710100082DE9F05FA5
:100270000546002092469B46884606468146402415
:100280001BE0284641464746224600F0ADF953465A
:100290005A46C01A914110D311461846224600F022
:1002A00094F92D1A67EB01084F46224601200021E0
:1002B00000F08BF917EB00094E41201EA4F1010458
:1002C000DFDC484631462A464346BDE8F09F40EA17
:1002D00001039B0703D009E008C9121F08C0042AC4
:1002E000FAD203E011F8013B00F8013B521EF9D2AB
:1002F0007047D2B201E000F8012B491EFBD27047D3
:100300000022F6E710B513460A4604461946FFF7E1
:10031000F0FF204610BD10B54843044601F080FEB2
:10032000002805D00021002C02D0641E0155FAE7F8
:1003300010BD2DE9FE4F81EA030404F0004421F0D2
:10034000004100944FF0000B23F0004350EA0104F9
:100350005ED052EA03045BD0C3F30A54C1F30A55DA
:100360002C44A4F2F3340194A0FB0254C1F3130112
:1003700041F48011C3F3130343F4801301FB0244DF
:1003800000FB034E840A970A44EA815447EA8357E4
:10039000A4FB076802958D0A05FB07854FEA932C9D
:1003A00004FB0C542705029D4FEA065847EA16370E
:1003B000B5EB08056EEB070C870E920E47EA811726
:1003C00042EA8312A7FB0201B6EB0B0164EB0004C7
:1003D0002B0D43EA0C335E1844EB1C50DA465146B1
:1003E000E7FB0201C5F313044FEA0B3343EA14534E
:1003F0004FEA0432019C43EA0603A4F10C04029480
:10040000009CCDE900B400F045F903B0BDE8F08FE1
:1004100000200146F9E72DE9F04D81EA030404F0DC
:10042000004B21F0004514464FF0000A23F0004134
:1004300050EA050220D054EA01021DD0C5F30A5744
:100440000246C5F31303C1F31300C1F30A5640F487
:10045000801543F48013A7EB0608101BD64608F25C
:10046000FD3873EB050002D308F1010801E0921892
:100470005B41B8F1000F03DA00200146BDE8F08DC2
:1004800000204FF48011064684460EE0171B73EBE4
:10049000050705D3121B63EB050306434CEA010C69
:1004A00049084FEA300092185B4150EA0107EDD14C
:1004B00052EA030012D082EA040083EA05010843ED
:1004C00005D0101BAB4106D20122002306E000221A
:1004D0004FF0004302E06FF0010253101AEB0600E8
:1004E0004CEB085110EB0A0041EB0B01BDE8F04D5D
:1004F00000F0C1B80EB540F2334102910021CDE9C0
:1005000000110A460B4600F0C5F803B000BDC1F368
:100510000A5210B5C1F3130140F2FF3341F48011C8
:100520009A4201DA002010BD40F233439A42A2F20F
:10053000334203DC524200F057F810BD904010BD2A
:1005400000F0004230F000400AD0C10D01F56071AA
:10055000C0F3160042EA0151C20840071143704738
:1005600000200146704701F0004330B421F0004103
:1005700050EA010206D00A0DA2F56072C1F3130120
:10058000002A02DC30BC00207047440F44EAC1045A
:10059000C100E01830BC00EBC25000F035B830B5F7
:1005A0000B46014600202022012409E021FA02F531
:1005B0009D4205D303FA02F5491B04FA02F52844CB
:1005C000151EA2F10102F1DC30BD202A04DB203A25
:1005D00000FA02F1002070479140C2F1200320FA96
:1005E00003F3194390407047202A04DB203A21FA94
:1005F00002F00021704721FA02F3D040C2F120023C
:1006000091400843194670470029A8BF7047401C15
:10061000490008BF20F00100704710B4B0FA80FC18
:1006200000FA0CF050EA010404BF10BC704749B155
:10063000CCF1200421FA04F411FA0CF118BF0121C5
:1006400021430843A3EB0C01CB1D4FEA00614FEAA5
:10065000102042BF002010BC704700EBC350104474
:100660000029A4BF10BC7047401C490008BF20F0FF
:10067000010010BC704710B5141E73F1000408DAB5
:10068000401C41F1000192185B411A4301D120F056
:10069000010010BD2DE9F04D92469B4611B1B1FA13
:1006A00081F202E0B0FA80F220329046FFF78DFF2F
:1006B00004460F4640EA0A0041EA0B0153465A46F7
:1006C000084313D0114653EA010019D0C8F1400283
:1006D0005046FFF789FF05460E46504659464246AA
:1006E000FFF773FF084305D0012004E02046394698
:1006F000BDE8F08D0020054346EAE0762C43374301
:100700000A986305E40AA0EB08000022FD0A44EA07
:1007100047540A3002D500200146E9E701051019C7
:100720006941DDE9084500196941BDE8F04DA2E7DE
:100730002DE9FE4F804681EA0300C00F0C46009071
:1007400021F0004123F00045B8EB0200A94105D299
:100750004046214690461C460B46024623F0004088
:10076000104347D0270DC7F30A00C3F30A51029084
:10077000401A019040286BDAC3F3130040F4801B49
:100780000098924620B10023D2EB030A63EB0B0BD7
:1007900001985946C0F140025046FFF716FF064641
:1007A0000D4650465946019A00F002F910EB080038
:1007B0006141002487EA115284EAE7731A4340D06A
:1007C000009A62B3019A012A4FEA075215DC001B16
:1007D00061EB02014FF0004202EA0752CDE900420C
:1007E000001C41F5801132462B46FFF753FF03B042
:1007F000BDE8F08F40462146F9E7001B61EB02019E
:10080000001C41F5801300185B412018A2F5001769
:1008100047EB030140EAD570B6196D4111E06D0850
:100820004FEA360645EAC0754FEA0752001B61EBF6
:100830000201001C41F5801149084FEA30000019FF
:10084000514132462B4603B0BDE8F04FFFF713BFCE
:100850000098012240000023D0EB020263EBE0731A
:10086000009821464FEAE074B8EB000061EB040108
:10087000E9E783F000435BE781F0004158E70000BF
:100880002DE9F041054621F000400C46284309D0EF
:10089000C4F30A5040F23341884205DD2846214620
:1008A000BDE8F0812846FBE740F2FE31884210DCCB
:1008B0000CDB4FEA043040EA155050EA053105D010
:1008C000104804F0004101430020E9E70020014600
:1008D000E6E7A0F233404642C6F1400228462146F0
:1008E000FFF773FE07468846284621463246FFF743
:1008F0007BFE43463A46FFF7BEFE3246BDE8F04176
:10090000FFF763BE0000F03F0EB5C10F80EAE07054
:100910000844CA07002140F233438DE80E000A461E
:100920000B46FFF7B7FE03B000BD000030B5041E54
:1009300071F1000404DB4FF00044404264EB01011C
:10094000141E73F1000405DB1C464FF000435242B5
:1009500063EB04038B4208BF824230BD30B5041EF6
:1009600071F1000404DB4FF00044404264EB0101EC
:10097000141E73F1000405DB1C464FF00043524285
:1009800063EB0403994208BF904230BD064C074D0B
:1009900006E0E06840F0010394E80700984710344F
:1009A000AC42F6D3FFF7E8FB584700087847000849
:1009B000202A06DBCB17203A41FA02F043EAE07323
:1009C00006E041FA02F3D040C2F120029140084310
:1009D0001946704710B500F041F900F011F800F029
:1009E000E5FA00F007FA10BD402001494861704760
:1009F000001001404020014908617047001001408B
:100A000008B5684600F0E4F84FF40070ADF8000057
:100A100002208DF8020018208DF803006946204856
:100A200000F042F84FF48060ADF8000069461C48C1
:100A300000F03AF81020ADF8000002208DF8020016
:100A400010208DF803006946154800F02DF8E020CD
:100A5000ADF8000002208DF8020018208DF8030088
:100A600069460F4800F020F8C120ADF800000220D0
:100A70008DF8020010208DF803006946094800F047
:100A800013F84FF4E060ADF8000002208DF802008A
:100A900028208DF803006946024800F005F808BDDB
:100AA00000080140001001402DE9F04102460025F8
:100AB0000026002000230024002791F803C00CF03A
:100AC0000F0591F803C00CF0100CBCF1000F03D01F
:100AD00091F802C04CEA050591F800C0BCF1000F86
:100AE00031D0146800202BE04FF0010C0CFA00F319
:100AF000B1F800C00CEA03069E4220D183004FF0FB
:100B00000F0C0CFA03F7BC4305FA03FC4CEA04048F
:100B100091F803C0BCF1280F06D14FF0010C0CFA7C
:100B200000FCC2F814C00AE091F803C0BCF1480F01
:100B300005D14FF0010C0CFA00FCC2F810C0401CAB
:100B40000828D1D31460B1F800C0BCF1FF0F34DD28
:100B5000546800202EE000F1080C4FF0010808FA5C
:100B60000CF3B1F800C00CEA03069E4221D18300C9
:100B70004FF00F0C0CFA03F7BC4305FA03FC4CEAE8
:100B8000040491F803C0BCF1280F05D100F1080C52
:100B900008FA0CF8C2F8148091F803C0BCF1480FB1
:100BA00007D100F1080C4FF0010808FA0CF8C2F860
:100BB0001080401C0828CED35460BDE8F081024666
:100BC000002093680B400BB1012000E0002070472B
:100BD0004FF6FF710180022181700421C1707047BE
:100BE00080200149486170470010014001200149FF
:100BF00048617047001001400120014908617047B9
:100C000000100140102001490860704710080140A1
:100C100010200149086070471408014029B1064AB4
:100C200052690243044B5A6104E0034A5269824309
:100C3000014B5A61704700000010024029B1064A7A
:100C400092690243044B9A6104E0034A9269824329
:100C5000014B9A61704700000010024010B501215D
:100C60000520FFF7EBFF01218803FFF7E7FF0121D4
:100C70001120FFF7E3FF01211020FFF7CFFF012133
:100C800041F20400FFF7DAFF10BD0000F0B50022CA
:100C90000021002400234F4D6D6805F00C0222B1A5
:100CA000042A12D0082A4BD112E04A4D2D6B05F0D0
:100CB00000753DB1474D6D6D05F4007515B1464D9C
:100CC000056001E0454D05603DE0444D05603AE0BA
:100CD000404D6D6805F480343E4D6D68404E05EA28
:100CE000060101F0C04535B901F47015B5F5701F66
:100CF00001D0022500E0012501F0C046C1F3834781
:100D000047EA5666A9191CB9364D4D4305600BE0FC
:100D1000304D6D6805F400351DB1324D4D43056011
:100D200002E02E4D4D4305602A4D6D6805F00045EB
:100D30002DB92D4E0568B54201D93546056002E052
:100D4000264D056000BF00BF224D6D68C5F302123D
:100D5000204D6D6805F0800515B1244DAD5C00E0B7
:100D600000252B460568DD4045601A4D6D68C5F3CA
:100D70000122184D6D6805F4806515B11B4DAD5C01
:100D800000E000252B464568DD408560114D6D680B
:100D9000C5F3C1220F4D6D6805F4005515B1134D13
:100DA000AD5C00E000252B464568DD40C560094D7F
:100DB0006D68C5F38132074D6D6805F080550DB142
:100DC00042F004020A4DAB5CC568B5FBF3F5056162
:100DD000F0BD000000100240006CDC0200127A003E
:100DE00000003C6000093D0000A24A0406470008DC
:100DF0000E47000800B585B0684600F027F80020CF
:100E0000ADF800004FF48270ADF802000020ADF89C
:100E10000400ADF80600ADF808004FF40070ADF81E
:100E20000A001820ADF80C000020ADF80E000120DB
:100E3000ADF810006946044800F02EF80121024880
:100E400000F010F805B000BD003001400021018025
:100E500041808180C180018141818181C1810721DF
:100E60000182704721B1028842F04002028004E012
:100E700002884FF6BF731A40028070470246002076
:100E800013890B400BB1012000E0002070470146A0
:100E9000888970478181704710B50022028802F46A
:100EA00041528B8903F4004323B1838843F4807358
:100EB000838003E0838823F4807383800B884C88CD
:100EC00023438C882343CC8823430C8923434C89B8
:100ED00023438C89C4F30E042343CC8923431A4350
:100EE0000280838B4FF2FF74234083830B8A03823B
:100EF00010BD704710B500BF102080F31188BFF3FC
:100F00004F8FBFF36F8F00BF02F048FC18B14FF056
:100F100080500449086000BF002080F3118800BFA2
:100F200010BD000004ED00E010B51A48006840F460
:100F30007000184908601848006840F00100164920
:100F4000086008464068154908401349486008464B
:100F5000006813490840104908600846006820F4FA
:100F600080200860084640680E4908400A494860E9
:100F70000846006B0C490840074908634FF41F00FE
:100F80008860FFF7B6FF4FF00060024980390860C3
:100F900010BD000088ED00E0001002400C00FFE8EA
:100FA000FFFFF6FEFFFF001700FFFEFE1FB56846BD
:100FB00000F0ACF84FF4E13000900020ADF80400F0
:100FC000ADF80600ADF80800ADF80C000C20ADF847
:100FD0000A006946034800F021F80121014800F0A9
:100FE00003F81FBD0038014021B1828942F400524C
:100FF000828104E082894DF6FF731A408281704736
:1010000002460020B1F5007F00D100BF13880B40DD
:101010000BB1012000E00020704700002DE9F04FE7
:1010200089B005460E46002400200790834682467C
:101030008146B08900B100BFA9462C8A4CF6FF70EA
:101040000440F08804432C82AC894EF6F31004402F
:10105000B08831890843718908430443AC81AC8A64
:101060004FF6FF400440B0890443AC8202A8FFF76A
:101070000DFE2348814502D10598079001E00498B0
:1010800007904FF47A710798A0FB01700146102277
:1010900000233846FFF7EAF8CDE9000137683A4601
:1010A0000023FFF7E3F804464FF47A70B4FBF0FB3B
:1010B000B4FBF0F100FB11404FEA001A4FF47A70D4
:1010C000BAFBF0F100FB11A0B0F5FA7F04D24FF4A7
:1010D0007A70BAFBF0FA0CE04FF47A70BAFBF0F0D9
:1010E00000F1010ABAF1100F03D34FF0000A0BF11F
:1010F000010B4AEA0B10288109B0BDE8F08F00000F
:1011000000380140C1F30802828070474FF4165145
:10111000016000218180C18001810C214181002179
:10112000818170470FB4054B10B503A9044A02989A
:1011300000F054FD10BC5DF814FB00002D1E0008EB
:1011400000000020000000002DE9F0412DED020B11
:101150009FED3D0B2DED028B9FED3D8BDDE90254A4
:10116000C4F30A50A0F2FF36142E37DA002E18DA34
:1011700053EC102B9DED020B51EC100BFFF7D8FA3E
:1011800053EC182BFFF7EAFB57D2002CBCBF4FF0F3
:101190000044002551DB54EA050018BF2E4C1BD13A
:1011A0004BE02E4820FA06F704EA070028431FD038
:1011B00053EC102B9DED020B51EC100BFFF7B8FA1E
:1011C00053EC182BFFF7CAFB37D2002C03DD4FF48A
:1011D0008010F0400444BC4300252EE0332E07DC91
:1011E000A6F114004FF0FF3121FA00F73D4206D17D
:1011F0009DED020BBDEC028B02B0BDE8F08153EC1B
:10120000102B9DED020B51EC100BFFF735FB53EC4F
:10121000182BFFF7A3FB10D2002C0DDD142E08BFF6
:10122000641C09D0C6F13400012101FA00F0284401
:10123000A84238BF641C0546BD43CDE902549DED6C
:10124000020BD7E7000000009C7500883CE4377E65
:1012500000000000000000000000F03FFFFF0F0052
:101260002DE9F0412DED020B9FED3D0B2DED028B95
:101270009FED3D8BDDE90254C4F30A50A0F2FF3626
:10128000142E37DA002E18DA53EC102B9DED020BDA
:1012900051EC100BFFF74CFA53EC182BFFF75EFBE9
:1012A00057D2002CA4BF0024254652DA24F0004077
:1012B000284318BF2E4C4CD01AE02E4820FA06F7CF
:1012C00004EA070028431FD053EC102B9DED020BBE
:1012D00051EC100BFFF72CFA53EC182BFFF73EFBE9
:1012E00037D2002C03DA4FF48010F0400444BC43A2
:1012F00000252EE0332E07DCA6F114004FF0FF315D
:1013000021FA00F73D4206D19DED020BBDEC028BA8
:1013100002B0BDE8F08153EC102B9DED020B51ECB7
:10132000100BFFF7A9FA53EC182BFFF717FB10D29D
:10133000002C0DDA142E08BF641C09D0C6F134004D
:10134000012101FA00F02844A84238BF641C054678
:10135000BD43CDE902549DED020BD7E7000000002C
:101360009C7500883CE4377E00000000000000000F
:101370000000F0BFFFFF0F0070B5D94B00242DED2A
:10138000020B2DED108BDDE91010984205DA20F0EC
:1013900000429A4201D809D141B19DED100BBDEC3C
:1013A000108B02B0BDE8704000F066BBB0F5801F46
:1013B00026DA11430BD0002813DA012000F088FB55
:1013C000BDEC108B02B0BDE8704000F061BB0220A4
:1013D00000F07EFB00F038FB51EC100B81F0004177
:1013E0009EE06FF035049FEDC00B53EC102B9DED8C
:1013F000100B51EC100BFEF79CFFCDE910010846D5
:1014000004EB2051C0F31304B948A1F2FF3120448A
:1014100000F4801080F07F6282F04052224301EBA2
:1014200020559FEDB50B119253EC102B9DED100B39
:1014300051EC100BFFF71DFA41EC180BA01CC0F388
:1014400013009FEDAFDB9FEDB0EBB14E7E44032860
:101450006CD296ED000B51EC180B53EC102BFFF7F0
:1014600065FA1DD1002D01BF96ED000BBDEC108B70
:1014700002B070BD2846FFF747FA41EC180B53EC59
:101480001D2BFEF756FF41EC190B53EC1E2B51ECB4
:10149000180BFEF74EFF53EC192BFFF749F93FE00D
:1014A0009FED9D0B51EC180B53EC102BFEF741FFF9
:1014B0009FED9B1B53EC112BFFF7DEF941EC190B51
:1014C00053EC182B51EC180BFEF733FF53EC192B90
:1014D000FEF72FFF41EC190B002D04BF53EC192B25
:1014E00051EC180B1AD02846FFF70EFA41EC1A0BF4
:1014F00053EC1D2BFEF71DFF53EC192BFFF7BCF926
:1015000053EC182BFFF7B5F941EC180B53EC1E2BDD
:1015100051EC1A0BFEF70DFF53EC182BFFF7A9F94E
:10152000BDEC108B02B041EC100B70BD9FED7E0B3B
:1015300051EC180B53EC102BFFF7FAF841EC100BA1
:1015400051EC180B53EC102BFEF765FF41EC190B17
:101550002846FFF7D9F941EC1B0B53EC192B51EC42
:10156000190BFEF7E6FE41EC1A0B714853EC1A2BEF
:10157000261851EC1A0BFEF7DCFE41EC1F0B6D48F0
:10158000C4F1510404F5D724B0EE4F0AF0EE6F0A0F
:101590000321784400F0DCF953EC1F2B51EC100BC5
:1015A000FEF7C7FE41EC1C0B6348B0EE4F0AF0EEAD
:1015B0006F0A0421784400F0CBF953EC1A2B51EC5C
:1015C000100BFEF7B6FE344353EC1C2BFFF7B0F8BC
:1015D00041EC1C0B002C4CDD9FED510B51EC180B1A
:1015E00053EC102BFEF7A5FE53EC182BFEF7A1FED3
:1015F00041EC1A0B55B353EC1D2B51EC1B0BFEF7B2
:1016000098FE41EC1D0B53EC1C2B51EC1A0BFFF711
:101610008FF853EC192BFEF78CFE53EC1D2BFFF7C4
:1016200087F853EC1A2BFFF727F953EC182BFFF729
:1016300020F941EC180B53EC1E2B51EC1B0BFEF761
:1016400078FE53EC182BFFF714F969E753EC1C2BC9
:1016500051EC1A0BFFF76CF853EC192BFEF769FEEF
:1016600053EC1A2BFFF708F953EC182BFFF704F98A
:1016700056E735B353EC1D2B51EC1B0BFEF759FE0F
:1016800041EC1A0B53EC1C2B51EC180BFFF7F1F843
:1016900053EC192BFEF74DFE53EC1A2BFFF7E9F82C
:1016A00053EC182BFFF7E5F841EC180B53EC1E2B0D
:1016B00051EC1B0BFEF73DFE53EC182BFFF7D9F84E
:1016C0002EE753EC1C2B51EC180BFFF7D2F853EC20
:1016D000192BFEF72EFE53EC182BFFF7CDF81FE762
:1016E0000000F07F000000000000000000005043F8
:1016F000645F090000000000000000000000F03FEF
:10170000763C7935EF39EA3D0000E0FE422EE63FB7
:101710000033000000000000555555555555D53F84
:10172000000000000000E03F00000000000000405A
:1017300086EBF9FF823100007831000000000000E4
:1017400070B5414A00252DED020B2DED048BDDE92E
:101750000404944205DA24F00041914201D809D1F1
:1017600040B19DED040BBDEC048B02B0BDE87040B0
:1017700000F082B9B4F5801F26DA08430BD0002CA4
:1017800013DA012000F0A4F9BDEC048B02B0BDE82F
:10179000704000F07DB9022000F09AF900F054F991
:1017A00051EC100B81F0004146E09FED290B6FF0EA
:1017B000350553EC102B9DED040B51EC100BFEF78F
:1017C000B8FDCDE904010C4605EB2450A0F2FF3032
:1017D000C10F40F2FF32521A62F31F540844FFF760
:1017E00093F805949DED040B41EC180B51EC100B94
:1017F00000F0F0FB9FED181B53EC112BFEF799FD49
:101800009FED170B41EC190B53EC102B51EC180BFF
:10181000FEF78FFD53EC192BFEF78AFF9FED120B9D
:1018200041EC190B53EC102B51EC180BFEF781FD1A
:1018300053EC192BFEF77CFFBDEC048B02B041EC9E
:10184000100B70BD000000000000F07F00000000E1
:1018500000000000000050430EE526157BCBDB3F67
:10186000362BF111F3FE593D00609F501344D33FD6
:1018700010B52DED020B2DED088B84B09DED0C0BFA
:1018800051EC100BFEF7FCFF41EC180B9DED0C0B1F
:1018900053EC182B51EC100BFEF7EBFF41EC190B3E
:1018A0000D989FED290B10F0004F53EC102B51ECCD
:1018B000190B9FED21AB9FED22BB0ED0FFF736F841
:1018C0000ED953EC1B2B51EC190BFFF747F81CD228
:1018D00014E000BF41EC180B17E0FFF727F806D221
:1018E00053EC1A2B51EC180BFEF7C3FFF2E753EC45
:1018F0001B2B51EC190BFFF731F806D853EC1A2BC0
:1019000051EC180BFEF714FFE4E78DED028B9DED13
:101910000C0B18EE901A10EE900A8DED000B61F38F
:101920001E0003909DED020B04B0BDEC088B02B0CD
:1019300010BD000000000000000000000000F03FAB
:10194000000000000000E03F000000000000E0BFD9
:1019500070B504462DED028B4D1E00EBC500B0EEB8
:10196000408AF0EE608A90ED000B35F0060017D04B
:1019700053EC182B51EC100BFEF7DBFC41EC100B79
:101980006D1E04EBC50090ED001B51EC100B53ECE9
:10199000112BFEF7CDFE41EC100B35F00600E7D120
:1019A000022D36D0042D1CD0062D1CBFBDEC028BA1
:1019B00070BD53EC182B51EC100BFEF7BAFC94EDF4
:1019C0000A1B53EC112BFEF7B3FE53EC182BFEF75A
:1019D000B0FC94ED081B53EC112BFEF7A9FE41EC73
:1019E000100B53EC182B51EC100BFEF7A2FC94EDEE
:1019F000061B53EC112BFEF79BFE53EC182BFEF746
:101A000098FC94ED040B53EC102BFEF791FE41EC87
:101A1000100B53EC182B51EC100BFEF78AFC94EDD5
:101A2000021B53EC112BFEF783FE53EC182BFEF731
:101A300080FC94ED001B53EC112BFEF779FEBDECFE
:101A4000028B41EC100B70BD9FED070B10B553ECF2
:101A5000102B9FED070B51EC100BFEF7DCFC41EC5B
:101A6000100B10BD0000000000000000000000008E
:101A7000000000000000F03F10B553EC102B51ECBB
:101A8000100BFEF755FE41EC100B10BD00000000DE
:101A90009FED050B10B553EC102B51EC100BFEF71E
:101AA000BAFC41EC100B10BD00000000000000006B
:101AB00002E008C8121F08C1002AFAD17047704717
:101AC000002001E001C1121F002AFBD17047000075
:101AD0000149086070470000C800002010B52DEDD6
:101AE000068B04462046FEF705FD41EC1A0B9FEDE0
:101AF0000B0B53EC102BFEF71CFC41EC190B9FED6C
:101B0000090B53EC102BFEF786FC41EC180BFEF78B
:101B10002AFD00EE100ABDEC068B10BD000000008F
:101B20002A75A541000000000030814070B52DED00
:101B3000068B82B006460C469FED250AF0EE408AE1
:101B4000012201A97C2000F0A3FF0199C943491C8F
:101B5000C1F31300FEF7CEFC41EC1A0B9FED1D0BF9
:101B600053EC102BFEF757FC41EC190BFEF7FBFC76
:101B700008EE100A2046FFF7B1FFF0EE000A68EE0B
:101B8000200A60EE200A00EE104AB8EE400A20EE6D
:101B9000800ADFED0F0A80EE201A11EE105A284657
:101BA000FEF7CEFC41EC1A0BB0EE4A0AF0EE6A0AE0
:101BB000FFF75EFEB0EE409AF0EE609A51EC190B22
:101BC000FEF7D1FC00EE100A02B0BDEC068B70BD32
:101BD000505EDF5000000000000070402DE9FF4F14
:101BE00089B09B460446002506E025280BD05A46BE
:101BF0000B999047641C6D1C20780028F5D10DB01E
:101C00002846BDE8F08F0027B8460122474900E08A
:101C1000074314F8013F203B02FA03F00842F7D1D2
:101C200020782E2819D114F8010F47F004072A282C
:101C30000ED06FF02F022078A0F1300109290CD8C6
:101C400008EB880102EB410100EB0108641CF2E79C
:101C50000A98641C50F8048B0A9020780028CED093
:101C6000642808D0692806D075281ED05A460B99DA
:101C700090476D1C58E00A994FF00A0901C90A9172
:101C8000002802DA40422D2102E0390504D52B213B
:101C90008DF82010012103E0F90704D02021F7E797
:101CA0008A4608AE0DE00021FAE70A994FF00A09CA
:101CB00001C90A91F7E74946FEF771FC303106F891
:101CC000011D0028F7D1ADEB060000F120097807CF
:101CD00001D44FF00108C84502DDA8EB090000E07F
:101CE00000208046002706E008A85A46C05D0B99F0
:101CF00090476D1C7F1C5745F6DB04E030205A46A8
:101D00000B9990476D1CB8F10001A8F10108F5DCB2
:101D100005E016F8010B5A460B9990476D1CB9F176
:101D20000001A9F10109F4DC641C65E70928010040
:101D300010B50B46002109E0046934F811409C42BB
:101D400003D1446954F821401460491C84698C42D1
:101D5000F2D810BD10B52DED068B04462046FEF7D7
:101D6000C9FB41EC1A0BB0EE4A0AF0EE6A0AFFF723
:101D7000E7FCB0EE409AF0EE609A9FED080B53EC52
:101D8000102B51EC190BFEF7D4FA41EC180BFEF7AF
:101D9000BEFBC0B2BDEC068B10BD00000000000011
:101DA0000000244010B5024600201AE032F910303D
:101DB000B3F5AF5F03DC32F91030002B07DA47F6DA
:101DC000FF7322F81030002402F10A031C5402F1C0
:101DD0000A031B5C8B4203DA47F6FF7322F81030CC
:101DE000401C0528E2DB10BD70B504460025034DFC
:101DF0002946204600F0DEFF70BD0000CC460008FA
:101E000070B505460C462846616801F057F8217AFE
:101E1000284600F0C5FF2846E16900F0FDFF28468E
:101E2000D4E9032101F02AF970BD000070B5044621
:101E30000D46A1B20548FFF765F900BF40210348F0
:101E4000FFF7DEF80028F9D0204670BD00380140C9
:101E500010B5002821D0114B0022001F196803E0A3
:101E6000814203D80A4649680029F9D152B1136862
:101E7000841A9C4204D1006818441060104602E0A5
:101E8000506000E0186039B102680B1A934203D128
:101E90000B681A4402604968416010BDC000002010
:101EA0002DE9F04196B004460F4616461D46DDF872
:101EB000708001200B902820005D08B1012000E017
:101EC00000200E9094F8290008B1002000E00020C6
:101ED0000F9094F82A0008B1032000E0042010902D
:101EE000E06A0D9001201190139514960020159032
:101EF00001A800F061FE01AB0BAA3946204600F0B4
:101F000092FCAA0040460899FEF7E1F901A800F00A
:101F100047FE16B0BDE8F0812DE9F04706460C46B5
:101F20009046374606F10C0906F1200A3868000C85
:101F300000B22080388800B260807868000C00B25F
:101F4000A080B88800B2E080388900B220810025E6
:101F50001EE059F8250020B9002104F10A0041557E
:101F600006E059F82500FFF7F5FE04F10A0148558F
:101F70005AF82500000C01B204F1100020F81510E9
:101F80003AF8250001B204F11A0020F815106D1C72
:101F9000052DDEDB41462046FFF704FFBDE8F08754
:101FA000F8B504460D4616464FF6FF77200A8DF821
:101FB0000000E0B28DF8010002226946384600F0C8
:101FC0009FFB074632462946384600F099FB0746F4
:101FD0003846F8BD10B541EC100BFFF7CDF951ECC8
:101FE000100B10BD1CB5FEF7F5FC01F08DF90020BB
:101FF000012103464FF4FA72CDE9001004A107480D
:1020000001F09CFB01F0AAF901F052FA00201CBD7E
:102010005461736B4D61696E00000000C1310008AE
:10202000F0B50B30154D20F007010024144A0FE0E5
:1020300003688B420BD38B4205D95E1A431847685D
:10204000C3E9006700E04368136002C004E0021DBA
:1020500010680028ECD12046002802D1286808B179
:102060000020F0BD064A07481060074A121A22F005
:102070000702C0E9002401202860D7E7C40000203F
:10208000C0000020D4210020D02300202DE9F04101
:1020900005460E461C4807681C480068001D01F0F4
:1020A000E9F850B91948006890F82C1001208840D0
:1020B00017490968814316480160681C38B936B170
:1020C00012480168091D134801F012F91AE07C1941
:1020D0000E4800684460BC4207D20C480168091DE4
:1020E0000D48006801F0EAF80CE008480168091D95
:1020F0000A48006801F0E2F809480068844201D209
:1021000007480460BDE8F0819800002084000020AA
:102110009C000020B82100208C00002088000020B6
:10212000B400002010B5044601F0EEF82348006822
:10213000401C224908602248006840B920480460D9
:102140000846006801280DD100F018F90AE01D4882
:10215000006838B91A480068C06AE16A884201D844
:102160001748046018480068401C1749086094F834
:102170002C1001208840154909680843134908605C
:10218000E16A01EB8101124A02EB8100211D01F09D
:10219000AFF801F0E3F80B48006868B10848006840
:1021A000C06AE16A884207D24FF08050094908604E
:1021B000BFF34F8FBFF36F8F10BD0000940000205E
:1021C00084000020A0000020B00000209C0000201F
:1021D0000421002004ED00E010B516E001F094F8B1
:1021E0000C48C068C468201D01F044F80A48006823
:1021F000401E0949086009480068401E07490860F8
:1022000001F0ACF8204600F00BF804480068002804
:10221000E4D110BDA42100209400002090000020F3
:1022200010B50446206B01F0B7F8204601F0B4F871
:1022300010BD000030B54FF40053174800F00704FC
:102240002CB1C01D20F00700134C041B1B1B0246C1
:10225000124C22600024114D6C60D018083820F018
:1022600007000F4C206000240D4D2D686C600C4D54
:102270002D682C601146441A4C60094C24680C608F
:10228000084D4C682C60084D4C682C604FF00044A1
:10229000064D2C6030BD00000401002060000020CD
:1022A00068000020700000206C00002074000020F6
:1022B00000BFFFF791FF064800680128F9D94FF0E9
:1022C000805004490860BFF34F8FBFF36F8FF0E772
:1022D0000421002004ED00E02DE9FF5F81460E4659
:1022E0009246DDE90E7B109CAAF10100216B01EB07
:1022F000800828F0070808F0070008B9012000E06E
:10230000002050B900BF102080F31188BFF34F8F19
:10231000BFF36F8F00BF00BFFEE7002507E0715DD0
:1023200004F134004155705D00B902E06D1C102DC0
:10233000F5D300BF002143200155052F00D304270A
:10234000E762201D00F0B7FF04F1180000F0B3FFB2
:102350002461C7F10500A06164620020606484F814
:10236000480049464046039A00F048F92060BBF116
:10237000000F01D0CBF80040BDE8FF9F10B500244E
:1023800007E004EB84010F4A02EB810000F086FFB6
:10239000641C052CF5D30C4800F080FF0B4800F0BE
:1023A0007DFF0B4800F07AFF0A4800F077FF0A48EB
:1023B00000F074FF044809490860044808490860AF
:1023C00010BD000004210020682100207C21002095
:1023D00090210020A4210020B821002088000020A6
:1023E0008C00002010B50146164800E00068036824
:1023F0008B42FBD30246436813448B4204D14368AB
:102400004C682344436001460A464B681344046801
:10241000A34211D10C4C03682468A34208D04B6836
:102420000468646823444B6003681B680B6005E024
:10243000054B1B680B6001E003680B60884200D00D
:10244000016010BD60000020680000200A49096892
:10245000096809B9012100E0002121B14FF0FF31E5
:10246000064A116006E004490968C968C868034A59
:10247000416811607047000088000020B40000200F
:102480000E480068401C08B9012000E0002050B947
:1024900000BF102080F31188BFF34F8FBFF36F8F01
:1024A00000BF00BFFEE700BF102080F31188BFF31C
:1024B0004F8FBFF36F8F00BF00BFFEE77800002093
:1024C0002DE9F04104464FF0000801F035F8464888
:1024D000006808B9FFF7AEFE4448006820400028B5
:1024E0006BD1D4B1083404F00700B0B104F0070098
:1024F000C0F10800044404F0070008B9012000E01E
:10250000002050B900BF102080F31188BFF34F8F17
:10251000BFF36F8F00BF00BFFEE7002C4DD03448E3
:102520000068844249D8334E3046056801E02E46A3
:102530002D686868A04202D228680028F7D12A488E
:102540000068854239D0306800F10808286830609A
:102550006868001B102819D92F1907F0070008B95F
:10256000012000E0002050B900BF102080F3118846
:10257000BFF34F8FBFF36F8F00BF00BFFEE76868E8
:10258000001B78606C603846FFF72CFF18496868BC
:102590000968081A1649086008460068164909685B
:1025A000884203D212480068134908600F496868DE
:1025B0000968084368600020286001F093F908F07A
:1025C000070008B9012000E0002050B900BF10202A
:1025D00080F31188BFF34F8FBFF36F8F00BF00BF31
:1025E000FEE74046BDE8F08168000020740000204E
:1025F0006C0000206000002070000020001F4FF0E1
:1026000080730360001F21F001030360001F054B6E
:10261000036014380260001F6FF00203036020386B
:1026200070470000812400082DE9F04107460C4660
:1026300016462068F0B10025E068012800D100E0CE
:10264000002005442069012800D100E00020054455
:10265000A06805446D1C6069684370602846616924
:10266000FDF759FE30604FF48030D6E9001200F0DB
:10267000DDF900BFBDE8F081F8B506460C46154609
:1026800001226946304600F003FA0098A04305EAAB
:1026900004010843009001226946304600F010FB17
:1026A000F8BD2DE9F04107460C461546A069D0B1AA
:1026B0000026216A29620421206AFDF72CFEE861C8
:1026C00000F062F900BF08E0EA6902EB8601626A85
:1026D00032F8160000F0C1F9761C206AB042F3D837
:1026E00000F08AF900BFBDE8F08170B506460C46DF
:1026F0001546A06A18B105F1240000F05FF970BD1D
:1027000030B50B461446002116E0072211E05D5C4F
:10271000154105F0010585EAD0352DB141F22105BD
:1027200085EA4005A8B203E04FF6FF7505EA4000D0
:10273000521E002AEBDA491CA142E6D330BD00004C
:1027400008B500F033F8FEF755F9642000F082FE7A
:10275000FEF752FA00F04BF9322000F07BFE012127
:10276000BE2000F093FA362000F074FE0E499B2044
:1027700000F08CFA002000906946F62000F06DF918
:10278000009800F47F40B0F5007F00D108BD0098AC
:1027900000F47F40B0F5407F03D10021402000F0DD
:1027A00075FA00BFF2E7000044FC1F0010B5FEF709
:1027B0001BF9FEF71BFAFEF713FAFEF723FA642063
:1027C00000F048FEFEF716F9012000F043FEFEF788
:1027D00013FA642000F03EFE10BD000010B5002189
:1027E000BF2000F053FA02499B2000F04FFA10BDC1
:1027F00044FC1F0010B506499B2000F047FA00F08A
:10280000F6F80121BF2000F041FA00F0F0F810BD09
:1028100077FC1F0010B5FEF7E9F9052000F01AFE5D
:10282000FEF7E2F810BD2DE9F04106460F461446CA
:102830001D462A4621463046FFF757FF2A462146C5
:102840003046FFF72EFF2A4621463046FFF7ECFEC2
:10285000BDE8F0812DE9FC5F82460C4617461D4617
:102860004FF00008C146601900F1020B01215846E3
:10287000FDF751FD064629A0006801900020009058
:10288000224651463046FDF722FD3019BDF80410AE
:1028900001802A46A11C70183946FDF718FDFEF785
:1028A000B7F92FE000BF02211D48FEF7E7FA002824
:1028B000F9D0404608F10108315C1948FEF7EAFA00
:1028C000601C804517D900BF01211548FEF7D6FAD4
:1028D0000028F9D01248FEF7DAFAC0B20090B9F138
:1028E000000F03D0A9F101010098785409F1010902
:1028F000022000F0AFFD00BF80210948FEF7BEFABC
:102900000028F9D1D845CDDBFEF77CF93046FFF73A
:102910009FFA0A2000F09EFDBDE8FC9F0101000027
:102920000030014070B505460E460024FEF770F9F0
:1029300015E000BF02210E48FEF7A0FA0028F9D0EA
:10294000295D0B48FEF7A6FA641C022000F082FD08
:1029500000BF80210648FEF791FA0028F9D1B44261
:10296000E7D3FEF74FF90A2000F074FD70BD0000B8
:102970000030014010B5B92000F052F810BD10B57C
:10298000112000F04DF810BD10B5152000F048F8EA
:1029900010BD00001CB5044607A00068019000208F
:1029A000009001236A46194601A8FFF753FF9DF8DE
:1029B000000020701CBD0000050000001CB504468E
:1029C00007A0006801900020009001236A46194684
:1029D00001A8FFF73FFF9DF8000020701CBD00001C
:1029E0000F00000010B5132000F01AF810BD10B54C
:1029F000AB2000F015F810BD10B5142000F010F851
:102A000010BD000038B5044604A0006800908DF8A1
:102A1000014002216846FFF785FF38BD0100000034
:102A200001B501216846FFF77DFF08BDF8B50446F2
:102A30000D4616460B208DF80000200C8DF8010085
:102A4000200A8DF80200E0B28DF8030033462A46D2
:102A500004216846FFF7FEFEF8BD7CB504460D462E
:102A60000B208DF80400200C8DF80500200A8DF84D
:102A70000600E0B28DF8070004236A46194601A853
:102A8000FFF7E8FE2946684600F0E8FB7CBD000041
:102A90002DE9FC5F074688461646062000EB8600B7
:102AA00001904FF000090020009001210198FDF7EE
:102AB00032FC044604213046FDF72DFC82460421F9
:102AC0003046FDF728FC8346002507E0042202FB80
:102AD00005A158F8250000F0B9FB6D1CB542F5D3EF
:102AE0000B202070380C6070380AA070E77001204D
:102AF00020716071B2005146A01DFDF7E8FBFEF7A2
:102B000087F82BE000BF02212448FEF7B7F9002820
:102B1000F9D0484609F10109215C2048FEF7BAF9CD
:102B2000B9F1060F13DD00BF01211C48FEF7A6F91D
:102B30000028F9D01948FEF7AAF9C1B200980BF89D
:102B400000100098401C0090022000F083FC00BFA1
:102B500080211248FEF792F90028F9D101988145A9
:102B6000D0DB002507E008EB8501042202FB05B05D
:102B700000F074FB6D1CB542F5D3FEF743F8204618
:102B8000FFF766F95046FFF763F95846FFF760F91B
:102B90000A2000F05FFCBDE8FC9F0000003001400F
:102BA00010B504462068FFF753F9E069FFF750F9C4
:102BB00000202060E06110BD00210160C16170470C
:102BC0002DE9F041054688461646371D0121384655
:102BD000FDF7A1FB044602202070280C6070280A33
:102BE000A070E57032464146201DFDF770FB394666
:102BF0002046FFF797FE2046FFF72AF9BDE8F0814F
:102C00002DE9F05F06460F469046002508F10409BD
:102C100001210420FDF77FFB0446AB460220207013
:102C2000300C6070300AA070E670FDF7F1FF1FE015
:102C300000BF02211448FEF721F90028F9D00BF15A
:102C4000010B042D02DA14F805A002E0281F17F882
:102C500000A051460C48FEF71DF96D1C022000F043
:102C6000F9FB00BF80210848FEF708F90028F9D1D8
:102C70004D45DDDBFDF7C6FF2046FFF7E9F80A20EA
:102C800000F0E8FBBDE8F09F003001403EB504468F
:102C90000D4602208DF80400200C8DF80500200A56
:102CA0008DF80600E0B28DF807006946284600F06E
:102CB000CDFA00980290082101A8FFF733FE3EBD2F
:102CC0002DE9F047064689461446042000EB840AA5
:102CD00004212046FDF71FFB804601215046FDF7E9
:102CE0001AFB054602202870300C6870300AA87064
:102CF000EE70002707E0042202FB078159F8270045
:102D000000F0A4FA7F1CA742F5D3A2004146281D7B
:102D1000FDF7DDFA51462846FFF704FE4046FFF76F
:102D200097F8BDE8F087000070B596B004460E46EF
:102D300015461C2209490FA8FDF7C9FA02A80D2360
:102D40000FAA314600902046FFF7AAF8227A2946BA
:102D500002A8FFF7E1F816B070BD0000EC460008CD
:102D600010B50446FFF7ECFC204600F0A0F9012066
:102D700020600020206310BD10B5044600202060B4
:102D8000401E606001202072242104F10C00FDF738
:102D9000B7FAFFF73FFDFFF7D3FCFFF73BFD10BD90
:102DA00070B505460C4622024FF47F414420FFF7E0
:102DB00063FC70BD38B504460D462868E06069685C
:102DC000216169696161A969A161A968E161E96835
:102DD0002162296961626A46A52104F10C00FEF7AF
:102DE000A7FF0098C0F30C41E1626A46A62104F1F6
:102DF0000C00FEF79DFF009BC3F30030009BC3F364
:102E00004171009BC3F300722823185584F82920D0
:102E100084F82A1038BD000070B505460C46012C18
:102E200002D0022C40D11DE0204A4FF0FF310A2091
:102E3000FFF722FC1E4A4FF0FF310B20FFF71CFC6E
:102E40001A4A4FF0FF311120FFF716FC184A4FF0D5
:102E5000FF311220FFF710FC164A51174320FFF7ED
:102E60000BFC21E0114A521E4FF0FF310A20FFF700
:102E700003FC114A4FF0FF310B20FFF7FDFB0B4A1B
:102E8000521E4FF0FF311120FFF7F6FB0A4A4FF0B8
:102E9000FF311220FFF7F0FB4FF402624FF0FF31D9
:102EA0004320FFF7E9FB00BF00BF70BD013344338F
:102EB00000190300200838E00013030070B5054630
:102EC0000C46A2014FF0FF31A120FFF7D5FB70BDEA
:102ED00010B50446204600F009F82046FFF740FFF1
:102EE000204600F065F9FFF745FD10BD10B504461A
:102EF0002046FEF779FF10BD2DE9F04F2DED0A8B2E
:102F000091B083460C4615461E46249F4FF4007030
:102F10001090FEF7E3FDF0EE000A20EE200ADFED50
:102F2000530A20EE200A10EE109A4846FDF708FBDF
:102F300041EC1A0B4FF400715846FEF7F7FD10EE06
:102F4000109A4846FDF7FCFA41EC1C0B9FED480B2C
:102F500053EC102BFDF7EDF941EC1B0B53EC1A2B46
:102F6000FDF759FA41EC190BFDF7FDFA08EE100ACE
:102F7000E81B00EE100AF8EE400A80EE880ADFED4A
:102F80003E0A30EEC00A10EE109A4846FDF7D8FA15
:102F900041EC1A0BB0EE4A0AF0EE6A0AFEF7D4F8DA
:102FA000B0EE409AF0EE609A51EC190BFDF7AFFAD3
:102FB0008046F01B00EE100AF8EE400A80EE880A08
:102FC000DFED2D0A30EEC00A10EE109A4846FDF7EC
:102FD000B7FA41EC1A0BB0EE4A0AF0EE6A0AFEF7B5
:102FE0003FF9B0EE409AF0EE609A51EC190BFDF704
:102FF0008EFA82464FF0000904E000204DF82900C7
:1030000009F10109B9F1100FF7D34FF0000914E0ED
:10301000CA4510D3C1450ED30F20A0EB59105DF85F
:10302000200009F01F020121914008430F21A1EB6C
:1030300059114DF8210009F10109B9F5007FE7D3D5
:103040004FF000090AE05DF8292004EB090188B27D
:103050004FF0FF31FFF710FB09F10109B9F1100F33
:10306000F1D311B0BDEC0A8BBDE8F08F0000004435
:10307000010000FCC9EB1B42000080432DE9FC412C
:1030800006460C461546002700200190012201A9A2
:103090008020FFF7FDFC019840F30B272B462246CA
:1030A000572130460097FFF727FFBDE8FC812DE947
:1030B000F8430446002600200090002780460025A3
:1030C00008E0226A52F82510E26932F81500FFF78D
:1030D000DDFD6D1C606AA842F3D8052000F0BAF946
:1030E0006946CC20FFF7B9FCFFF778FB4FF40030BE
:1030F000D4E90312FFF784FD4FF40030D4E9031242
:10310000FEF74EFF06466946CC20FFF7A6FC4FF6B9
:10311000FF71009801EA10474FF44030D4E90512DE
:10312000FFF74EFD4FF44030D4E90512FEF738FFAB
:1031300006466946CC20FFF790FC00981FFA80F8FD
:10314000FFF758FBBDE8F883F8B504460E46FFF7D5
:103150004EFC062000F07EF916B14FF4807501E0B8
:103160004FF41F652946B020FFF790FD0021B020E5
:10317000FFF78CFD002000906846FFF70BFC206BEA
:1031800050B90A499B20FFF781FDFFF7F3FBFFF7DA
:10319000F6FBFFF727FC05E0206B012802D10C208D
:1031A000FFF730FC02202060F8BD000077FC1F1004
:1031B00010B504462046616BFEF722FE10BD0000EC
:1031C0008AB01F48FFF7D8FD3C20019019200290DB
:1031D000CD208DF80C000A2004904FF44870059023
:1031E00041F2301006900020079001200890002046
:1031F000099001A8124948630846FFF769FE0021BB
:103200000F48FFF7A1FF002419E04FF480710D482B
:10321000FDF7D5FC044694B1002401AA4FF47A715D
:103220000748FFF781FDBDF9040047F6FF718842AA
:1032300004D0BDF9041004A0FDF774FF00BFE4E75B
:10324000CC0000200010014025640A00020E0A7024
:10325000020C4A70020A8A70C8707047027812061F
:10326000437842EA0342837842EA0322C3781A434E
:103270000A60704701460A69D1E901309860D1E9D6
:10328000010358605068884201D18868506000206E
:1032900008611068401E10601068704700F1080156
:1032A00041604FF0FF31816000F10801C1600161B0
:1032B00000210160704700210161704710B502468E
:1032C0000B685C1C0CB9106907E002F1080000E013
:1032D0004068446824689C42FAD944684C604C6851
:1032E000A160886041600A611468641C146010BDAC
:1032F00042684A6093688B60936859609160086186
:1033000003685B1C0360704700BF102080F31188C6
:10331000BFF34F8FBFF36F8F00BF0E480068401C94
:103320000C49086008460068012812D10A48006864
:10333000C0B208B9012000E0002050B900BF102041
:1033400080F31188BFF34F8FBFF36F8F00BF00BFB3
:10335000FEE770477800002004ED00E00D480068AB
:1033600050B900BF102080F31188BFF34F8FBFF317
:103370006F8F00BF00BFFEE706480068401E05498A
:1033800008600846006820B9002080F3118800BF5B
:1033900000BF70477800002070B506463546002E05
:1033A0003FD0083D2C461F4960680968084008B1B5
:1033B000012000E0002050B900BF102080F31188E8
:1033C000BFF34F8FBFF36F8F00BF00BFFEE72068D2
:1033D00008B9012000E0002050B900BF102080F3A0
:1033E0001188BFF34F8FBFF36F8F00BF00BFFEE7A1
:1033F0000C4960680968084098B1206888B9094993
:10340000606809688843606000F096F80649606863
:1034100009680844044908602046FEF7E3FF00F00D
:1034200061FA70BD740000206C00002000204FF095
:10343000E02108618861064800684FF47A71B0FBAA
:10344000F1F0401E4FF0E02148610720086170470D
:103450004C00002070B504460025D4B11248006825
:1034600008B9012000E0002050B900BF102080F30F
:103470001188BFF34F8FBFF36F8F00BF00BFFEE710
:1034800000F05AF800212046FEF700FE00F02AFA6C
:1034900005463DB94FF0805004490860BFF34F8F97
:1034A000BFF36F8F70BD0000BC00002004ED00E092
:1034B0001CB51A4800210B468022CDE9001018A146
:1034C000194800F03BF90446012C15D100BF10202B
:1034D00080F31188BFF34F8FBFF36F8F00BF4FF0A2
:1034E000FF3012490860012011490860002011498D
:1034F000086000F06FF810E0601C08B1012000E0E7
:10350000002050B900BF102080F31188BFF34F8F07
:10351000BFF36F8F00BF00BFFEE71CBDB8000020E7
:1035200049444C4500000000B1220008B4000020CE
:10353000A00000209800002002480068401C0149BB
:1035400008607047BC0000201D48006818B10120C9
:103550001C49086032E000201A4908601A480068D7
:10356000B0FA80F0C0F11F0101EB8100174A52F858
:10357000200008B1012000E0002050B900BF102059
:1035800080F31188BFF34F8FBFF36F8F00BF00BF71
:10359000FEE701EB81020D4B03EB820042685268AB
:1035A000426000F108024368934202D142685268C7
:1035B00042604268D268064B1A6000BF7047000044
:1035C000BC000020A80000209C0000200421002056
:1035D000840000201CB5524800685249884201D03E
:1035E000012000E0002050B900BF102080F31188B6
:1035F000BFF34F8FBFF36F8F00BF00BFFEE7484898
:1036000000684849491E884201D0012000E000209E
:1036100050B900BF102080F31188BFF34F8FBFF364
:103620006F8F00BF00BFFEE73F490846007801905A
:10363000FF200A4610700846007800909DF80000B0
:1036400000F0F0009DF80020904201D1012000E040
:10365000002050B900BF102080F31188BFF34F8FB6
:10366000BFF36F8F00BF00BFFEE79DF8000000F0C2
:1036700010002E4A107007202D4A106009E02C48D7
:103680000068401E2A4A10609DF800004006000EA7
:1036900000909DF8000000F080008028EFD02448C2
:1036A0000068C0F10700042801D1012000E00020DB
:1036B00050B900BF102080F31188BFF34F8FBFF3C4
:1036C0006F8F00BF00BFFEE7194800680002184A6C
:1036D00010601046008800F4E0601060124A019803
:1036E00010700F482030006840F470000C49203101
:1036F00008600846006840F070400860FFF796FEDA
:1037000000200C490860FCF763FD0B48006840F09E
:10371000404009490860FCF747FD00201CBD00003F
:1037200000ED00E071C20F4100E400E07C000020E9
:10373000800000207800002034EF00E02DE9FF4FEA
:1037400085B0804689461746DDE912ABB800FEF722
:10375000B7FE064656B14C20FEF7B2FE04460CB149
:10376000266304E03046FFF717FE00E000247CB13A
:103770000020CDE900ABCDE902403A46494640463B
:10378000089BFEF7A9FD2046FEF7CCFC012501E0D1
:103790004FF0FF35284609B0BDE8F08F2DE9F04124
:1037A0004FF0000844480068002877D1434800687B
:1037B000451C4248056015BB41480068006808B9CF
:1037C000012000E0002050B900BF102080F31188D4
:1037D000BFF34F8FBFF36F8F00BF00BFFEE73848C6
:1037E0000768384800683649086036480760364838
:1037F0000068401C34490860FEF728FE00BF3348CB
:10380000006885423CD300BF2D480068006808B9B5
:10381000012000E0002020B14FF0FF302B4908606C
:103820002DE027480068C068C4686668B54202D2C7
:103830002648066023E0201DFFF71CFDA06A18B192
:1038400004F11800FFF716FD94F82C1001208840B1
:103850001F49096808431E490860E16A01EB8101BC
:103860001C4A02EB8100211DFFF742FD1A49E06A64
:103870000968C96A8842C7D34FF00108C4E700BF8E
:1038800015480068C06A00EB8000124951F820001A
:10389000012801D94FF0010805E0FFE70F48006853
:1038A000401C0E4908600E48006808B14FF001083E
:1038B0004046BDE8F0810000BC00002098000020D8
:1038C000880000208C000020AC000020B400002004
:1038D0009C0000200421002084000020A40000207F
:1038E000A800002070B5002400263648006850B9B2
:1038F00000BF102080F31188BFF34F8FBFF36F8F8D
:1039000000BF00BFFEE7FFF7FFFC2E480068401E27
:103910002C4908600846006800284FD12A480068F2
:1039200000284BD024E02948C068C46804F118007E
:10393000FFF7A0FC201DFFF79DFC94F82C10012040
:10394000884023490968084321490860E16A01EB7E
:103950008101204A02EB8100211DFFF7C9FC1E49AD
:10396000E06A0968C96A884202D301201B490860DD
:103970001648006808B9012000E000200028D2D0D5
:103980000CB1FEF763FD1648056865B100BFFFF78F
:1039900005FF10B10120114908606D1E002DF6D100
:1039A00000200F4908600D48006838B10126300733
:1039B0000C490860BFF34F8FBFF36F8FFFF7CEFC4A
:1039C000304670BDBC0000209400002090210020F3
:1039D0009C0000200421002084000020A80000207A
:1039E000A400002004ED00E0001000000000000032
:1039F0000000000000000000000280012000000024
:103A000003FC02237780000000002401A2001200C2
:103A1000272000000A70100000004E022000000065
:103A200000004B3599A0000000028002A0000000B9
:103A300003FC0223778000000002A2032000001193
:103A4000400000038000380000002203A0000001B5
:103A50004000000380003C0000050004200000003E
:103A600003FC122377800000000C8204A0000001F8
:103A70004000000000003C0000002005202303035C
:103A800003FE322377800000000A0205A00244E111
:103A90004000000000003CBC000280062823030315
:103AA00003FE322377800000000A0E06A0003FFCD0
:103AB000CCC84B3599A0007F00140207200244C1F6
:103AC0004000000000003CBC00002407A2001200DF
:103AD000272000010A701000000146082005943FCD
:103AE0000044FA030058012B0007E608A005943FA4
:103AF0000044FA030058192B049C0E0930002000E2
:103B00000D684B2F3332AF7F0000A609B005943FFC
:103B10000044FA030258192B27FCC60CB005943F49
:103B20000044FA030058192B00000E0CA0003FF8C7
:103B300000004BBF3330007F00000E0B20003FFF22
:103B4000F2984BBF3332AF7F0000060BA005943FC5
:103B50000044FA030258192B0000060C2005943F7C
:103B60000044FA030058192B00000E0CA000200896
:103B700000004B2F3330007F00002A0D2000000092
:103B800000000000008C400000002C0DA000000090
:103B9000000000000000000000002A0D20000000CE
:103BA000000000000000601C015B8E0EA0003FFFC3
:103BB000D0944BBF333015970000200F2000000039
:103BC00000001223778000000003A20FA00244C16E
:103BD0004000000380003CBC00400210200244C1B1
:103BE0004000000000003CBC00008010A00000006D
:103BF00000000221700000000000201120000000E1
:103C0000000002237000000000002A0020000000D5
:103C1000000000000000100000002A00A0000000CA
:103C2000000000000000002400002A11A000000095
:103C3000000000000000102500002A22A000000063
:103C4000000000000000002600002A33A000000051
:103C5000000000000000002700002A0020000000F3
:103C6000000000000000100000002A11A000000069
:103C7000000000000000002900002A0020000000D1
:103C80000000000000001000C5796C15A0000000C5
:103C9000000000000000000000002A0020000000DA
:103CA0000000000000001000C578EC16A000000025
:103CB000000000000000000000002A1720000000A3
:103CC000000000000000100000002C17A000000001
:103CD000000000000000000000002C182000000080
:103CE000000000000000000000002C18A0000000F0
:103CF000000000000000000000002C19200000005F
:103D0000000000000000000000002C19A0000000CE
:103D1000000000000000000000002C1A200000003D
:103D2000000000000000000000002C1AA0000000AD
:103D3000000000000000000000002C1B200000001C
:103D4000000000000000000000002C1BA00000008C
:103D5000000000000000000000002C1C20000000FB
:103D6000000000000000000000002C1CA00000006B
:103D7000000000000000000000002C1D20000000DA
:103D8000000000000000000000002C1DA00000004A
:103D9000000000000000000000002C1E20000000B9
:103DA000000000000000000000002C1EA000000029
:103DB000000000000000000000002C1F2000000098
:103DC000000000000000000000002C1FA000000008
:103DD000000000000000000000002C202000000077
:103DE000000000000000000000002C20A0000000E7
:103DF000000000000000000000002C212000000056
:103E0000000000000000000000002C21A0000000C5
:103E1000000000000000000000002C222000000034
:103E2000000000000000000000002C22A0000000A4
:103E3000000000000000000000002C232000000013
:103E4000000000000000000000002C23A000000083
:103E5000000000000000000000002C2420000000F2
:103E6000000000000000000000002C24A000000062
:103E7000000000000000000000002C2520000000D1
:103E8000000000000000000000002C25A000000041
:103E9000000000000000000000002C2620000000B0
:103EA000000000000000000000002C26A000000020
:103EB000000000000000000000002C27200000008F
:103EC000000000000000000000002C27A0000000FF
:103ED000000000000000000000002C28200000006E
:103EE000000000000000000000002C28A0000000DE
:103EF000000000000000000000002C29200000004D
:103F0000000000000000000000002C29A0000000BC
:103F1000000000000000000000002C2A200000002B
:103F2000000000000000000000002C2AA00000009B
:103F3000000000000000000009C40C002000000088
:103F400000000000000000000001082BA00000009D
:103F50000000F800000007830096002C20000000FD
:103F600000000223700000000000462CA004143F53
:103F700000000000000001030000262D2004143F73
:103F8000000000000800010300002A11A00000004A
:103F9000000000000000005B00002C2E600000000C
:103FA000000000000000000000002A1620000000B1
:103FB00000000000000000580002822F2244B64199
:103FC0004000000000002C100032002FA223030349
:103FD00003FE322377F80000000048302400000080
:103FE0000000F800003E63A300008830A00000003D
:103FF0000000F800003E6383000048312C00000000
:104000000000F800003E639300014C31A000000066
:104010000000000000000000000048322C000000FA
:104020000000F800003E63A300010832A000000079
:104030000004F800003E63A30000283320000000C5
:104040000000F800003E63A300002A0020000000EA
:10405000000000000000100000320035AA23030316
:1040600003FE322377F8000000320035A223030359
:1040700003FE322377F8000000320035AA23030341
:1040800003FE322377F8000000320035A223030339
:1040900003FE322377F80000000048362C000000B1
:1040A0000000F800003E63C300002A00200000006A
:1040B000000000000000100000004837240000004D
:1040C0000000F800003E639300008837A000000065
:1040D0000000F800003E6383000048382400000020
:1040E0000000F800003E63A300008838A000000034
:1040F0000000F800003E638300002A00200000005A
:1041000000000000000010000032023BA244B64153
:104110004000000000002C300032023BA244B641B7
:104120004000000000002C200032023BA244B641B7
:104130004000000000002C340032023BA244B64193
:104140004000000000002CBC0032023BA244B641FB
:104150004000000000002C780000483C24000000D3
:104160000000F800007E63A30000883CA00000006F
:104170000000F800007E63830000483D2C00000032
:104180000000F800007E639300014C3DA000000099
:1041900000000000000000000000483E2C0000006D
:1041A0000000F800007E63A30001083EA0000000AC
:1041B0000004F800007E63A30000283F20000000F8
:1041C0000000F800007E63A300002A002000000029
:1041D00000000000000010000096004020000000D9
:1041E000000002237000000000028040A0000000D8
:1041F00003FC022377F800000000244122000000A5
:10420000002002000000000000004E41A00000005D
:1042100000004B78000000000002804220000000F7
:1042200003FC022377F800000002A242A000001164
:10423000400000038000280000002243200000010D
:104240004000000380002C0000050043A000000097
:1042500003FC122377F80000000C824420000001C8
:104260004000000000002C0000002044A333C3C322
:10427000C3FF322377F80000003202452244B641E2
:104280004000000000002C1000014645A0019C7F6A
:104290000000080F005801070006464620019C7FD9
:1042A0000000080F0058790700320E46A0000000F9
:1042B00000004B773330000000002447220000004C
:1042C000002002000000000000002A2EA0000000D4
:1042D000000000000000008F00002A33A000000052
:1042E000000000000000009000002A36A00000003E
:1042F000000000000000009100002C0020000000E1
:10430000000000000000000000320E49A000000084
:1043100000000000000000000000244A23E000002C
:10432000002002000000000000002A2EA000000073
:10433000000000000000009500002A33A0000000EB
:10434000000000000000009600002A36A0000000D7
:104350000000000000000000000108002000000034
:104360000000F800000007830002804CA00000005D
:1043700003FC0223778000000000244D220012007D
:10438000272000000A70100000004E4DA000000021
:1043900000004B2F333000000002804E2000000050
:1043A00003FC0223778000000002A24EA00000114F
:1043B00040000003800028000000224F2000000180
:1043C0004000000380002C000005004FA00000000A
:1043D00003FC122377800000000C825020000001B3
:1043E0004000000000002C0000002050A023030328
:1043F00003FE322377800000000C82512244B66114
:104400004000000000002CBC000A0051A823030358
:1044100003FE322377800000001402522244B6418A
:104420004000000000002CBC00002452A20012003A
:10443000272000010A701000000146532005943F18
:10444000000008030058012B00064653A005943FC6
:10445000000008030058192B000108542000000038
:104460000007F800000007D300028856A0000000F3
:104470000006F800000007D300000E5520000000E1
:10448000000000000000000000000455A3E012003E
:10449000272000010A7010000000085620000000CC
:1044A0000007F800000007D300000856A000000035
:1044B0000006F800000007D300002057200000008D
:1044C00000001223778000000003A257A00244C11D
:1044D0004000000380003CBC000080582000000029
:1044E000000002217000000000002058A000000021
:1044F000000002237000000000002C1620000000C5
:1045000000000000000000000000002900A2016C73
:10451000028303E6058F077C09A80C0C0EA3116625
:10452000144F17551A711D9B20CC23FA271E2A30D1
:104530002D292FFF32AD352C377439813B4D3CD4BA
:104540003E113F023FA43FF53FF53FA43F023E111D
:104550003CD43B4D39813774352C32AD2FFF2D299A
:104560002A30271E23FA20CC1D9B1A711755144F91
:1045700011660EA30C0C09A8077C058F03E60283C5
:10458000016C00A2002900000700080009000A00D1
:104590000B000C000E000F001000110012001300A1
:1045A00015001F0020003A00430044005700580047
:1045B00059005A005B005C005D005E005F00600017
:1045C0006100620063006400650066007C0080009A
:1045D00088008B008C008F00900091009200930067
:1045E0009400970098009E009F00A100A400A500E1
:1045F000A600B60080280000470606000000000460
:1046000001334433001903000303504280280000A3
:10461000470606000000000401334433001903007C
:10462000030350420D0D1111000000001212000092
:1046300000000011200838E022CD00010000000039
:10464000000000000000000000000000000000006A
:10465000000000000000000000000000FFFFFF7FDE
:10466000FFFFFFFFC0FFFFFF000000000000000091
:10467000000000000000000000000000D1F40F0066
:1046800000F80F000180FF7F0180FF7F0180FF7F26
:104690000180FF7F97005600970056000002B1008E
:1046A00000F00010141423080080B2540080BC04F1
:1046B000000002200000001440060000030001007A
:1046C0000300010001100001F0090000E8390008B2
:1046D000200B000088450008F44500083600000063
:1046E000084500088000000001000000BC01BD0179
:1046F000BE019B019C019D019E019F01A001A101A2
:10470000A201A301A401010203040607080902048F
:104710000608020C0810000004FA97999999D93FED
:10472000AF788E1DC571CC3F9FC678D0099AC33F24
:10473000935555555555E53F599322942449D23FF9
:10474000DE03CB966446C73F44523EDF12F1C23FC0
:104750000000000000000000784700080000002072
:10476000CC000000B01A000844480008CC0000202B
:1047700004270000C01A000800000000000000002C
:10478000001C0140000C01400010014000004000EE
:104790002000200000000000800000000800000051
:1047A000100000000008014000100140010000203E
:1047B00004000000100000000000000000000000E5
:1047C0000100000000127A0000000000000000005C
:1047D00001020304060708090000000000000000B1
:1047E00000000000000000000000000000000000C9
:1047F000AAAAAAAA00000000000000000000000011
:1048000000000000000000000000000000000000A8
:104810000000000000000000000000000000000098
:104820000000000000000000000000000000000088
:104830000000000000000000000000000000000078
:044840000000000074
:04000005080001717D
:00000001FF
